:020000040800F2
:10000000E007002049120008750500087705000880
:100010007B0500087F05000883050008000000003C
:10002000000000000000000000000000870500083C
:1000300089050008000000008B0500088D050008F8
:1000400063120008631200086312000863120008BC
:1000500063120008631200086312000863120008AC
:10006000631200086312000863120008631200089C
:10007000631200086312000863120008631200088C
:10008000631200086312000863120008631200087C
:10009000631200086312000863120008631200086C
:1000A000631200086312000863120008631200085C
:1000B000631200084B090008631200084D0900088C
:1000C000330B0008870B0008270D00086312000897
:1000D00063120008BF1100086312000863120008D1
:1000E000631200086312000863120008631200081C
:1000F000631200086312000863120008631200080C
:1001000063120008631200086312000863120008FB
:1001100063120008631200086312000863120008EB
:1001200063120008631200086312000863120008DB
:1001300000F002F800F03AF80AA090E8000C8244BF
:100140008344AAF10107DA4501D100F02FF8AFF29C
:10015000090EBAE80F0013F0010F18BFFB1A43F0A5
:10016000010318474C3500006C350000103A24BFDD
:1001700078C878C1FAD8520724BF30C830C144BF0C
:1001800004680C607047000000230024002500264E
:10019000103A28BF78C1FBD8520728BF30C148BFEA
:1001A0000B6070471FB51FBD10B510BD03F051FAAD
:1001B0001146FFF7F7FF00F0DDF803F06FFA03B424
:1001C000FFF7F2FF03BC00F09FFF000010B5002016
:1001D000DF49087035E000F007FE582000F0B9FE56
:1001E00002E0582000F0B5FE00F040FE0028F8D1F3
:1001F000D849D74A1278885C00F0ABFE05E0D549B3
:10020000D34A1278885C00F0A4FE00F02FFE00288C
:10021000F5D1D149CE4A1278885C00F09AFE05E00B
:10022000CD49CB4A1278885C00F093FE00F01EFEA8
:100230000028F5D100F0F8FDC5480078401CC449FD
:100240000870C34800781928C5DB10BDFF20C349DA
:10025000487688760020BE49087016E0FF20BF4926
:10026000BB4A12788854FF21BC48401DBC4A127812
:1002700081540A30BA4A12788154B94A12788154AA
:10028000B3480078401CB2490870B148007805288E
:10029000E4DB704710B50121022002F06CF810BDBC
:1002A00008B50220ADF8000003208DF802001020F0
:1002B0008DF803006946AB4801F092FB08BD0EB50E
:1002C0000121A94802F0B8FF4FF4FA70ADF804001C
:1002D00048F69F40ADF800000020ADF80600ADF8EC
:1002E00002006946A04802F071F9012211469E48B9
:1002F00002F0E3FC01219C4802F0C4FC0EBD10B5E5
:1003000001F0BEFE012001F040FF00BF212001F0FE
:10031000FAFE0028FAD0002001F057FF002001F07B
:1003200066FF4FF4806001F059FF022001F01AF8D7
:10033000102001F02BF84FF44011002001F028FFAD
:10034000012001F031FF00BF392001F0DCFE002860
:10035000FAD0022001F02BFF00BF01F031FF082886
:10036000FBD101211C2001F0F9FF0121084601F019
:10037000F5FF10BDFFF7C3FFFFF78CFF00F04CFE49
:1003800000F0F6F900F0ACFE00F008FA00F051FAC7
:10039000322000F079FE00F00EFD322000F074FEF5
:1003A000FFF754FFFFF712FF012070490860CDE00E
:1003B0000020674908706A49087000F015FD702038
:1003C00000F0C7FD02E0702000F0C3FD00F04EFD1C
:1003D0000028F8D100F0BDFD02E0002000F0B9FDDA
:1003E00000F044FD0028F8D100F01EFD00F0FCFCF8
:1003F000712000F0AEFD02E0712000F0AAFD00F0D7
:1004000035FD0028F8D1524908700BE0012000F0BA
:10041000CBFD57494E4A127888544D480078401C0D
:100420004B4908704A4800782028EFDB002000F094
:10043000BBFD4F4981F8200000F0F6FC4C48807865
:1004400018B14B488078FF2804D149488078434947
:10045000487678E046488078404948760846407EAD
:10046000052801DD0520487600203D49087064E03C
:100470003B4C247804EB44046400241D3C4D2D5D6A
:10048000374C247804EB44046400E41C384E345D9B
:1004900004F00F0445EA0420314C247804EB4404B2
:1004A0006400A41D35462D5D2D4C247804EB4404D6
:1004B0006400641D345D04F00F0445EA0421284CF7
:1004C000247804EB44046400E41C35462C5DA2113E
:1004D000234C247804EB44046400641D2C5D231138
:1004E000B0F5487F01DD4FF44870B1F5F07F01DDD4
:1004F0004FF4F071C0F54874A0B2C1F5F074A1B228
:10050000164C174E3678A055050A641D144E3678E1
:10051000A555641D124E3678A1550D0A641D104E66
:100520003678A5550F3CA27614340D4D2D786355C1
:100530000B480078401C0A4908700848407E08496A
:100540000978884294DC0A2000F09EFD30E7000024
:1005500000000020020000201B0000209D00002061
:100560000100002000100140000400408C012142E5
:100570007C000020704700BFFEE700BFFEE700BF21
:10058000FEE700BFFEE77047704770477047000006
:100590000CB50020019000906C48006840F4803059
:1005A0006A49086000BF6948006800F400300090A4
:1005B0000198401C0190009818B90198B0F5A06FFF
:1005C000F1D16248006800F4003010B101200090C1
:1005D00001E0002000900098012843D15C480068A9
:1005E00040F010005A4908600846006820F00300F7
:1005F00008600846006840F0020008605348406800
:10060000524948600846406848600846406840F4DF
:10061000806048600846406820F47C1048600846C6
:10062000406840F4E81048600846006840F0807078
:10063000086000BF4548006800F000700028F9D04D
:100640004248406820F0030040494860084640683E
:1006500040F00200486000BF3C48406800F00C00D9
:100660000828F9D10CBD10B5FFF792FF10BD10B5E9
:100670003648006840F00100344908600846406888
:10068000344908403149486008460068324908400A
:100690002E4908600846006820F48020086008465B
:1006A000406820F4FE0048604FF41F008860FFF7A8
:1006B000DAFF4FF000602949086010BD10B5002135
:1006C00000200022214B5B6803F00C0121B10429BA
:1006D00006D0082928D107E0214B224C236027E0CF
:1006E0001F4B204C236023E0184B5B6803F4701011
:1006F000164B5B6803F48032022303EB904022B96F
:10070000194B4343174C23600DE0104B5B6803F417
:10071000003323B1144B4343124C236003E0104BCE
:100720004343104C236003E00D4B0E4C236000BF8D
:1007300000BF064B5B68C3F303130C4CE15C094B31
:100740001B68CB40074C236010BD00000010024026
:10075000002002400000FFF8FFFFF6FE08ED00E079
:1007600000127A003400002000093D00380000200B
:1007700008B50121042001F0F1FD0820ADF80000CA
:1007800010208DF8030003208DF80200694602480E
:1007900001F026F908BD00000008014000B587B04F
:1007A0000121880501F0E7FD0121082001F0D6FDB7
:1007B0004FF44060ADF8180003208DF81A001C209B
:1007C0008DF81B0006A9FE4801F00AF9FD480290C9
:1007D0000020ADF80C004BF6FF70ADF80E00FA48A3
:1007E0000088ADF810004FF48060ADF812000001F1
:1007F000ADF8140002A9F54801F059FA01224FF4AE
:10080000E061F24801F03CFB21208DF8040001205A
:100810008DF8050000208DF8060001208DF80700F6
:1008200001A800F036FD0121E84801F0BEFA07B04A
:1008300000BD00B587B00121480501F09CFD0121F4
:10084000082001F08BFDC020ADF8180003208DF8C2
:100850001A001C208DF81B0006A9D94801F0C0F829
:10086000D84802900020ADF80C004BF6FF70ADF8B0
:100870000E00D7480088ADF810004FF48060ADF846
:1008800012000001ADF8140002A9D24801F00FFADD
:1008900001224FF4E061CF4801F0F2FA1F208DF8F9
:1008A000040001208DF8050000208DF806000120CD
:1008B0008DF8070001A800F0ECFC0121C54801F00B
:1008C00074FA07B000BD10B50446C349204601F0D4
:1008D00093FB208B10BD10B50446BF490E31204656
:1008E00001F08AFB0121204601F05FFA10BD10B52E
:1008F000B848FFF7E8FFFFF79CFF10BD10B50446AE
:10090000B248FFF7E0FFB5480178B04801F0C1FAFE
:1009100010BD10B5AF48FFF7D6FFB148007840B919
:100920000120AF490870AF48417EAA4801F0B1FAF2
:100930000AE0AD480078401EAA4A521D105C40F003
:100940008001A44801F0A5FA10BD704710B5A74971
:10095000A04801F074FB18B1A4499E4801F08AFB3D
:100960009C4801F03CFBA24A811A904271D01ADCEB
:10097000A04AA0EB020190426CD00DDC10287FD081
:10098000B0F5806F68D0B0F1021F28D0A0F500301C
:100990004038002870D126E001296ED007296DD09B
:1009A0003F29F7D1BDE0944A881A914267D009DC0B
:1009B00002296CD0A1F57F41FE39002978D00229A7
:1009C000E8D1AFE08D490844002872D0B0F5E00FBF
:1009D00070D0A0F5E80080380028DBD19DE07D488C
:1009E000FFF771FFA3E07B4801F055FA84490870D6
:1009F000002084490870012079490870002082494C
:100A000008707F480078022803D1002074490870DC
:100A100031E07B480078032803D101207249087037
:100A200029E077480078092803D102206E49087030
:100A300021E0734800780F2803D103206A49087029
:100A400019E06F480078152807D10420664908701E
:100A500011E019E063E013E059E0694800781B28D1
:100A600003D105206049087005E065480078FF283B
:100A700001D1FFF73CFF5AE058E051E055E053E068
:100A80005448FFF728FF52E0FFF743FF4FE05F486D
:100A9000007880B954480078401E524A115C4D4895
:100AA00001F0F7F959480078401C584908702DE0CA
:100AB00039E033E030E055480078012816D14A4843
:100AC0000078401E474A1432135C47480078401EA5
:100AD000521F105C63F31F10C1B23E4801F0D9F9F8
:100AE0004A480078401C494908700FE047480078A0
:100AF00002280BD13C480078401E3A4A0A32115C69
:100B0000344801F0C6F90020404908700FE0374929
:100B1000304801F0AFFA0AE009E008E007E006E03B
:100B200005E004E003E002E001E000E000BF00BFF8
:100B300010BD10B53649274801F081FA10BB354980
:100B4000244801F07CFAE8B93349224801F077FAE9
:100B5000C0B932491F4801F072FA98B923491D48BB
:100B600001F06DFA20B121491A4801F083FA09E039
:100B70002B49184801F063FA20B94FF001211548BC
:100B800001F05DFA10BD10B51849104801F057FA90
:100B900018B116490D4801F06DFA0C4801F01FFA22
:100BA000134A811A90426ED04DDC124AA0EB02012A
:100BB000904269D040DC102867D0B0F5806F31E0FA
:100BC000000C0140A08601004A00002000580040AF
:100BD0004800002000540040020000105000002097
:100BE000510000209D0000204C0000200004000166
:100BF0008200060001000300020001008400F5FFEE
:100C00004F00002054000020560000205800002013
:100C100000800001004000010010000100080001F8
:100C2000000200016BD0B0F1021F28D0A0F5003007
:100C30004038002874D129E0012969D007296ED0F5
:100C40003F296DD165E04D4A881A914266D009DC92
:100C5000022953D0A1F57F41FE3900295DD0022938
:100C60005ED157E04649084400284FD0B0F5E00F68
:100C70004AD0A0F5E8008038002851D145E041482D
:100C8000FFF721FE4DE034E041E02EE03D4801F069
:100C900002F93D49087008460078012802D13B4915
:100CA000087021E038480078802803D1C3203749F4
:100CB000087019E034480078822803D18520334930
:100CC000087011E03048007804280DD02E480078D4
:100CD000FF2803D101202E49086005E02A4800784A
:100CE00010B900202A4908601BE02648FFF7F3FDF1
:100CF00017E026480078FFF701FE12E011E02549D1
:100D0000204801F0B7F90CE00BE00AE009E008E048
:100D100007E006E005E003E001E002E001E000E0BA
:100D200000BF00BF10BD10B51B49164801F087F980
:100D300010BB1A49134801F082F9E8B91849114863
:100D400001F07DF9C0B917490E4801F078F998B95A
:100D500010490C4801F073F920B10E49094801F01F
:100D600089F909E01049074801F069F920B94FF005
:100D70000121044801F063F910BD000002000100E8
:100D80008400F5FF005800404F0000205000002074
:100D90008C0121420004000100800001004000019C
:100DA00000100001000800010002000110B504203D
:100DB00000F046F910BD08B50121042001F0CEFA7B
:100DC0004FF44060ADF8000010208DF803000320C0
:100DD0008DF8020069468D4800F002FE4FF4406134
:100DE0008A4800F0AAFE08BD10B58848001D0068BA
:100DF00020F470608549091D08600846006840F4C9
:100E0000407008600120824908608249C1F8AC0145
:100E1000FFF7CCFF00207E490860FFF7C7FF0020E6
:100E20007C49C1F8AC0110BD10B57848001D0068C0
:100E300020F470607549091D08600846006840F498
:100E40004070086000207249091D08607149C1F8AE
:100E5000A801FFF7ABFF01206D49091D0860FFF7EE
:100E6000A5FF01206B49C1F8A80110BD10B50024F1
:100E70006648001D006820F470606449091D086020
:100E80000846006840F4006008600120604908607E
:100E900000F0D6F801205F49C1F8AC0100F0D0F8AD
:100EA00007E0601CC4B2FA2C03DDFFF7BDFF012090
:100EB00010BD5748803800680028F2D15449091DF8
:100EC000086000BFF4E710B500205149091D086013
:100ED0004E48001D006820F470604C49091D0860F0
:100EE0000846006840F44070086000204949C1F895
:100EF000A801FFF75BFF01204549091D0860FFF7C6
:100F000055FF00204349C1F8AC0110BD10B50020C9
:100F10003F49091D08603D48001D006820F47060CD
:100F20003A49091D08600846006840F440700860AE
:100F300001203849C1F8A801FFF738FF01203449E2
:100F4000091D0860FFF732FF00203249C1F8AC01EB
:100F500010BD70B504462D48001D006820F4706077
:100F60002A49091D08600846006840F4407008607E
:100F700000202749091D0860002512E0E0092449E6
:100F800008606006040E01202249C1F8AC01FFF799
:100F90000DFF00201E49091D0860FFF707FF681CB0
:100FA000C5B2082DEADB70BD70B5054600241748B0
:100FB000001D006820F470601449091D086008468F
:100FC000006840F400600860002614E0002010492A
:100FD000091D08601E2000F033F801200D49C1F8FA
:100FE000AC016006040E0A488038006808B1601C35
:100FF000C4B2701CC6B2082EE8DB15B9FFF786FF35
:1010000001E0FFF760FF204670BD000000080140CE
:10101000A8012142000021422D4800682D49B0FB63
:10102000F1F02D4908700846007800EB4001C1EB53
:10103000C0104FF6FF7101EAC000284908807047D0
:101040000146254A12784A434FF0E0235A610022B4
:101050009A611A46126942F001021A6100BF4FF00C
:10106000E022106900F001021AB100F48032002A77
:10107000F5D04FF0E022126922F001024FF0E02398
:101080001A6100229A6170470146144A12884A4345
:101090004FF0E0235A6100229A611A46126942F029
:1010A00001021A6100BF4FF0E022106900F0010256
:1010B0001AB100F48032002AF5D04FF0E022126914
:1010C00022F001024FF0E0231A6100229A6170477A
:1010D0003400002000127A005A0000205C0000203A
:1010E00008B54FF4A06000F0CFF81D208DF8000087
:1010F00000208DF8010001208DF802008DF803001A
:10110000684600F0C6F808BD014600BF704700BF42
:10111000494A128802F04002002AF9D0C2B2464B76
:101120001B1D1A80704710B586B00446012144F299
:10113000040001F013F94FF40070ADF8140003201F
:101140008DF8160018208DF8170005A93B4800F00F
:1011500047FC4FF48060ADF8140004208DF81700B0
:1011600005A9364800F03CFC25208DF8000003203E
:101170008DF801008DF8020001208DF8030068460B
:1011800000F087F801940020ADF80800ADF80A00DF
:10119000ADF80C00ADF810000C20ADF80E0001A960
:1011A000254802F090F8012240F22551224802F031
:1011B00022F90121204802F012F906B010BD10B545
:1011C00040F225511C4802F0FBF910B31A4802F016
:1011D00077F9C4B21A48008800F40040C8B918482A
:1011E000008800F4804060B10A2C03D0002014492C
:1011F000088020E01248008840F400401049088030
:1012000019E00D2C06D10E48008840F480400C49AE
:10121000088010E00A480088C0F30D0009490C540A
:1012200007480088401C0649088008460088C728EF
:1012300001DD0020088010BD003801400008014099
:1012400064000020B8000020094880470948004792
:10125000FEE7FEE7FEE7FEE7FEE7FEE7FEE7FEE766
:10126000FEE7FEE704480549054A064B70470000C3
:101270006F06000831010008E0010020E0070020AF
:10128000E0030020E003002031490143314A1160AE
:10129000704770B5002100230F22C47804B32D4C91
:1012A000246804F4E064C4F5E064210AC1F1040395
:1012B000CA40447804FA03F18478144021430901B8
:1012C000254C0678A155047804F01F050124AC4094
:1012D00005786D11AD0005F1E025C5F8004109E084
:1012E000047804F01F050124AC401C4D06787611EB
:1012F00045F8264070BD1A4A0A400243154B1B1F91
:101300001A60704739B1134A121D12680243114B1B
:101310001B1D1A6006E00F4A121D126882430D4B16
:101320001B1D1A607047042808D14FF0E02109699D
:1013300041F004014FF0E022116107E04FF0E0219D
:10134000096921F004014FF0E022116170470000AB
:101350000000FA050CED00E000E400E080E100E0B0
:1013600080FFFF1F01460020FE4A106800F0380091
:10137000084310607047FB49096821F00801F94AE9
:10138000116011460968014311607047F549096809
:1013900021F01001F34A1160114609680143116000
:1013A0007047F148EF494860F04848607047EE48A0
:1013B000EC494860ED4848607047EA48006940F0F1
:1013C0008000E84908617047E648006940F0800005
:1013D000E449086170470420E249C96801F001014D
:1013E00009B101200EE0DF49C96801F0040109B12B
:1013F000022007E0DB49C96801F0100109B10320B0
:1014000000E00420704700B502460423FFF7E3FF25
:10141000034603E0FFF7DFFF0346521E012B01D115
:10142000002AF7D102B90523184600BD30B504469D
:1014300004254FF43020FFF7E6FF0546042D17D1B1
:10144000C848006940F00200C64908610846446186
:10145000006940F0400008614FF43020FFF7D3FFEF
:101460000546C048006941F6FD710840BD49086164
:10147000284630BD10B504244FF43020FFF7C3FFD9
:101480000446042C16D1B748006940F00400B54961
:1014900008610846006940F0400008614FF43020C0
:1014A000FFF7B1FF0446AF48006941F6FB71084001
:1014B000AC490861204610BD00B502460423FFF781
:1014C0008AFF034603E0FFF786FF0346521E012B07
:1014D00001D1002AF7D102B90523184600BD10B585
:1014E00004244FF43020FFF7E7FF0446042C16D104
:1014F0009C48006940F004009A4908610846006968
:1015000040F0400008614FF43020FFF7D5FF04465B
:101510009448006941F6FB710840924908612046F1
:1015200010BD00208F49C96901F0020109B10120F5
:1015300000E00020704730B5A5250424FFF7F1FF37
:1015400000B100254FF43020FFF75DFF0446042C66
:101550003AD1854883498860844888600846006994
:1015600040F0200008610846006940F04000086132
:101570004FF43020FFF747FF0446042C1BD1794875
:10158000006941F6DF710840764908610846006944
:1015900040F01000086176480580E002FFF733FF55
:1015A0000446052C10D06F48006941F6EF710840E1
:1015B0006C49086108E0052C06D06A48006941F6CC
:1015C000EF71084067490861204630BD78B506468E
:1015D0000C46042500200090E802FFF714FF0546A2
:1015E000042D24D15F48006940F001005D49086185
:1015F0003480E802FFF707FF0546042D10D1B01C28
:101600000090200C00990880E802FFF7FCFE0546D8
:101610005448006941F6FE7108405249086106E0ED
:101620005048006941F6FE7108404E49086128465D
:1016300078BD70B504460D460426F002FFF7E3FEC0
:101640000646042E11D14748006940F00100454983
:1016500008612580F002FFF7D6FE06464148006982
:1016600041F6FE7108403F490861304670BD70B5D3
:1016700005460E460424E002FFF7C5FE0446042C8E
:1016800017D139483749886038488860084600696A
:1016900040F0100008612E80E002FFF7B4FE04461F
:1016A000052C06D02F48006941F6EF7108402D49FE
:1016B0000861204670BD2DE9F04304464FF6FF76E1
:1016C0003746B046B1460425E443E6B2C4F30727E3
:1016D000C4F307484FEA1469E802FFF794FE054691
:1016E000042D49D120481F49886020488860084659
:1016F000006940F010000861FF2E06D01C48083039
:101700000680E802FFF77FFE0546042D08D1FF2F73
:1017100006D017480A300780E802FFF774FE054636
:10172000042D0AD1B8F1FF0F07D011480C30A0F8F2
:101730000080E802FFF767FE0546042D0AD1B9F1E3
:10174000FF0F07D00A480E30A0F80090E802FFF71C
:101750005AFE0546052D0FD00248006941F6EF718B
:10176000084007E00020024023016745AB89EFCD28
:1017700000F8FF1F664908612846BDE8F08330B5D0
:10178000054604244FF43020FFF73DFE0446042CA8
:1017900041D160485E4988605F48886008460069BA
:1017A00040F0200008610846006940F040000861F0
:1017B0004FF43020FFF727FE0446042C22D1544872
:1017C000006941F6DF710840514908610846006927
:1017D00040F0100008611DB100205049088002E06F
:1017E000A5204E4908804FF43020FFF70CFE044638
:1017F000052C10D04648006941F6EF710840444975
:10180000086108E0052C06D04148006941F6DF7107
:1018100008403F490861204630BDF0B505460E46F8
:10182000174604243B483A4988603B488860E002F8
:10183000FFF7E9FD0446042C19D13548006940F052
:1018400010003349086147F0F8003043284333491A
:10185000891C0880E002FFF7D6FD0446052C06D05F
:101860002B48006941F6EF7108402949086120467C
:10187000F0BD2748C069800870472548006A704756
:1018800000202349096801F0200109B1012000E08E
:101890000020704729B11E4A126902431C4B1A618D
:1018A00004E01B4A12698243194B1A6170470146D2
:1018B0000020012908D1164AD26902F001020AB1BA
:1018C000012008E0002006E0114AD2680A400AB16F
:1018D000012000E0002070470D49C86070470420D7
:1018E0000B49C96801F0010109B101200EE0084966
:1018F000C96801F0040109B1022007E00449C96880
:1019000001F0100109B1032000E00420704700003D
:101910000020024023016745AB89EFCD00F8FF1F8F
:1019200010B50446CC48844208D10121042000F0BF
:101930002FFD0021042000F02BFD46E0C748844223
:1019400008D10121082000F023FD0021082000F02B
:101950001FFD3AE0C248844208D10121102000F066
:1019600017FD0021102000F013FD2EE0BD48844239
:1019700008D10121202000F00BFD0021202000F0E3
:1019800007FD22E0B848844208D10121402000F040
:10199000FFFC0021402000F0FBFC16E0B34884422D
:1019A00008D10121802000F0F3FC0021802000F00C
:1019B000EFFC0AE0AE48844207D10121801500F017
:1019C000E7FC0021A01500F0E3FC10BD10B50121DB
:1019D000084600F0DDFC0021012000F0D9FC10BD1C
:1019E0002DE9F041024600250026002000230024B6
:1019F000002791F803C00CF00F0591F803C00CF01C
:101A0000100CBCF1000F03D091F802C04CEA0505A0
:101A100091F800C0BCF1000F31D0146800202BE019
:101A20004FF0010C0CFA00F3B1F800C00CEA030609
:101A30009E4220D183004FF00F0C0CFA03F7BC43F9
:101A400005FA03FC4CEA040491F803C0BCF1280F2A
:101A500006D14FF0010C0CFA00FCC2F814C00AE0E9
:101A600091F803C0BCF1480F05D14FF0010C0CFAFE
:101A700000FCC2F810C0401C0828D1D31460B1F893
:101A800000C0BCF1FF0F34DD546800202EE000F1EF
:101A9000080C4FF0010808FA0CF3B1F800C00CEA8A
:101AA00003069E4221D183004FF00F0C0CFA03F77E
:101AB000BC4305FA03FC4CEA040491F803C0BCF1F2
:101AC000280F05D100F1080C08FA0CF8C2F81480B0
:101AD00091F803C0BCF1480F07D100F1080C4FF09A
:101AE000010808FA0CF8C2F81080401C0828CED370
:101AF0005460BDE8F0814FF6FF71018002218170D2
:101B00000421C17070470246002093680B400BB15E
:101B1000012000E0002070470146886880B27047CD
:101B200002460020D3680B400BB1012000E00020EA
:101B300070470146C86880B27047016170474161D3
:101B400070470AB1016100E041617047C1607047B0
:101B50004FF480320A4382618161826182698269C5
:101B6000704702460020434B18684FF680731840B8
:101B700040EA021008433F4B186070473E49C86175
:101B80007047F0B50A46002300240021002500F02C
:101B90000046B6F1004F02D1364EF16901E0354EF4
:101BA0007168C0F3034583B200F44016B6F5401FD8
:101BB00008D121F070612F4E766826F070662D4FA7
:101BC0007E6012E000F48016B6F5801F06D1032671
:101BD00006FA05F4A14341F0706106E0460D3601B6
:101BE00003FA06F6B14341F0706122B1460D3601A9
:101BF00003FA06F6314300F00046B6F1004F02D179
:101C00001C4EF16101E01B4E7160F0BD30B5002249
:101C10008B071C0F0F2303FA04F2164B08338C10AA
:101C200053F824309343134C08348D1044F8253076
:101C300023468C1053F824308C07240F00FA04F448
:101C400023430C4C08348D1044F8253030BD0A492C
:101C5000DC3108607047000000080140000C0140C2
:101C6000001001400014014000180140001C014018
:101C700000200140000001400000204210B5044651
:101C8000F748844209D10121480500F08EFB00216C
:101C90004FF4001000F089FB08E00121880500F0F6
:101CA00084FB00214FF4800000F07FFB10BD2DE984
:101CB000F04385B004460D460026B1460427DFF800
:101CC000A483A6884FF6C0700640684600F0D9FA93
:101CD000DDF80880E448B8FBF0F01FFA80F946EA26
:101CE0000906A68020884FF6FE7108402080002655
:101CF000DE49286888420CD828684000B8FBF0F01C
:101D000087B2042F00DA04273E4309F10100208442
:101D100027E0E8884BF6FF71884206D1286800EB7F
:101D20004000B8FBF0F087B209E0286800EBC00182
:101D300001EB0010B8FBF0F087B247F48047C7F31F
:101D40000B0008B947F0010747F4004006434FF481
:101D5000967009FB00F04FF47A7190FBF1F0401C93
:101D60002084A683208840F00100208026884FF63A
:101D7000F5300640A8886989084306432680A8896B
:101D800029890843208105B0BDE8F08341F28831FC
:101D90000160002181804BF6FF71C180002101812B
:101DA00041814FF480418181704721B1028842F026
:101DB0000102028004E002884FF6FE731A4002809E
:101DC000704721B1828842F40062828004E08288F8
:101DD0004FF2FF731A408280704721B1828842F42B
:101DE0008052828004E082884EF6FF731A4082801F
:101DF000704721B1028842F48072028004E00288B8
:101E00004FF6FF631A400280704721B1028842F406
:101E10000072028004E002884FF6FF531A400280ED
:101E2000704721B1028842F48062028004E0028897
:101E30004FF6FF331A40028070470A46002181891D
:101E40004FF60173194002F0FE0319438181704778
:101E500021B1828942F00102828104E082894FF639
:101E6000FE731A408281704721B1028842F040021D
:101E7000028004E002884FF6BF731A400280704768
:101E80001AB183880B43838002E083888B4383806D
:101E90007047018270470146088AC0B2704712B18C
:101EA00041F0010102E04FF6FE73194001827047D4
:101EB00008B5024600200090009200980844009067
:101EC0000098008808BD21B1028842F400420280D7
:101ED00003E00288C2F30E0202807047B1F5006F82
:101EE00004D1028842F40062028004E002884FF2CA
:101EF000FF731A4002807047B1F5005F04D1028879
:101F000042F40052028004E002884DF6FF731A404A
:101F10000280704721B1028842F48052028004E0BE
:101F200002884EF6FF731A4002807047B1F5006FC9
:101F300004D1028842F40062028004E002884FF279
:101F4000FF731A400280704721B1028842F02002DC
:101F5000028004E002884FF6DF731A400280704767
:101F60000146088B0012704721B1028842F010022E
:101F7000028004E002884FF6EF731A400280704737
:101F800021B9028842F08002028004E002884FF604
:101F90007F731A4002807047B1F5804F05D0828B65
:101FA0004BF6FF731A40828303E0828B42F4804237
:101FB0008283704770B5024600240025002300206C
:101FC000958A138B1B0445EA030626F07F4404EA36
:101FD00001068E4201D1012000E0002070BD10B545
:101FE00001460020002300228B8A0A8B120443EA58
:101FF000020424F07F4010BD0CB5024600200023EF
:102000000193009300920B0F019321F07F41019BFC
:102010001BB1009B1433009303E0090C009B1833A1
:102020000093009B1B680B400BB1012000E00020D7
:102030000CBD002221F07F42D3438382704730B52C
:10204000024600200023948801F0E06504EA15436D
:1020500021F07F41948A0C4054B14BB1012008E03B
:102060000054004000127A0040420F00A086010098
:10207000002030BD002221F07F42D343838270478D
:10208000DF48006840F00100DD490860084640680C
:10209000DC490840DA49486008460068DA490840E7
:1020A000D74908600846006820F480200860084688
:1020B000406820F4FE0048604FF41F0088607047BD
:1020C000CF49096821F48031CD4A11601146096871
:1020D00021F480211160B0F5803F03D0B0F5802F4E
:1020E0000ED106E0C649096841F48031C44A116046
:1020F00007E0C349096841F4A021C14A116000E02A
:1021000000BF00BF704710B5014600220023002029
:102110004A11012A02D1BA4C236806E0022A02D1F0
:10212000B74C236A01E0B64C636A01F01F02012438
:1021300094401C400CB1012000E0002010BD38B5D7
:10214000002000900024002500BF3120FFF7DBFFB6
:1021500005460098401C00900098B0F5A06F01D093
:10216000002DF2D03120FFF7CEFF08B1012400E0AE
:102170000024204638BD01460020A14A106820F006
:10218000F80040EAC10010607047A049086070473D
:10219000024600209A4B586820F47C1042EA010362
:1021A0001843974B58607047984908667047014636
:1021B0000020934A506820F00300084350607047A5
:1021C0008F48406800F00C007047014600208C4AA0
:1021D000506820F0F000084350607047014600202E
:1021E000874A506820F4E060084350607047014619
:1021F0000020834A506820F4605040EAC1005060DB
:10220000704729B17E4A527A02437D4B5A7204E0EC
:102210007B4A527A82437A4B5A7270477B49D83153
:102220000860704701460020754A506820F440401D
:102230000843506070470021714A20321170704A83
:1022400082F82010012802D004280AD104E00121DC
:102250006B4A2032117005E00521694A2032117065
:1022600000E000BF00BF70476949086070476449DB
:10227000096A0143624A116270476549443908603E
:10228000704730B500210022002400235C4D6D68AA
:1022900005F00C0121B1042905D0082923D105E05E
:1022A0005C4D056022E05B4D05601FE0544D6D689C
:1022B00005F47012524D6D6805F48034022505EB6B
:1022C00092421CB9544D554305600BE04C4D6D686E
:1022D00005F400351DB1504D5543056002E04D4DEC
:1022E0005543056002E04B4D056000BF00BF444D03
:1022F0006D6805F0F0010909484D6B5C0568DD402B
:1023000045603F4D6D6805F4E061090A434D6B5C23
:102310004568DD4085603A4D6D6805F46051C90A35
:102320003E4D6B5C4568DD40C560354D6D6805F41C
:102330004041890B3A4D6B5CC568B5FBF3F505610F
:1023400030BD29B12E4A526902432D4B5A6104E037
:102350002B4A526982432A4B5A61704729B1284A55
:1023600092690243264B9A6104E0254A92698243AE
:10237000234B9A61704729B1214AD2690243204B0D
:10238000DA6104E01E4AD26982431D4BDA6170476C
:1023900029B11B4AD2680243194BDA6004E0184A9B
:1023A000D2688243164BDA60704729B1144A126929
:1023B0000243134B1A6104E0114A12698243104B25
:1023C0001A61704712494039086070470F49C86464
:1023D00070470B49C87170470948406A40F08070E7
:1023E00007494862704701460020054A92680A4042
:1023F0000AB1012000E0002070470149887270474F
:10240000001002400000FFF8FFFFF6FE000042420D
:102410008004424200127A0000093D00660000205C
:102420007600002010B50446FE48844208D1012100
:10243000C014FFF7ADFF0021E014FFF7A9FFC4E0CF
:10244000B4F1804F08D101210846FFF7AEFF00210B
:102450000120FFF7AAFFB8E0F348844208D1012128
:102460000220FFF7A2FF00210220FFF79EFFACE051
:10247000EE48844208D101210420FFF796FF002195
:102480000420FFF792FFA0E0E948844208D101212F
:102490000820FFF78AFF00210820FFF786FF94E05D
:1024A000E448844208D101211020FFF77EFF00217B
:1024B0001020FFF77AFF88E0DF48844208D101212D
:1024C0002020FFF772FF00212020FFF76EFF7CE045
:1024D000DA48844208D101214014FFF759FF002156
:1024E0006014FFF755FF70E0D548844209D10121FF
:1024F000C804FFF74DFF00214FF40020FFF748FF0D
:1025000063E0D048844209D101210805FFF740FF6C
:1025100000214FF48010FFF73BFF56E0CA48844289
:1025200009D101214805FFF733FF00214FF40010C6
:10253000FFF72EFF49E0C548844208D10121402021
:10254000FFF733FF00214020FFF72FFF3DE0C04899
:10255000844208D101218020FFF727FF002180203D
:10256000FFF723FF31E0BB48844208D101218015E9
:10257000FFF71BFF0021A015FFF717FF25E0B64866
:10258000844209D101210804FFF702FF00214FF422
:102590008030FFF7FDFE18E0B048844209D10121E8
:1025A0004804FFF7F5FE00214FF40030FFF7F0FE7E
:1025B0000BE0AB48844208D101218804FFF7E8FE14
:1025C00000214FF48020FFF7E3FE10BD00220288B7
:1025D000944B98420ED0994B98420BD0B0F1804F5B
:1025E00008D0914B984205D0904B984202D0904B26
:1025F000984204D14FF68F731A404B881A438D4B83
:10260000984207D08C4B984204D04FF6FF431A40B3
:10261000CB881A4302808B8883850B880385814B86
:1026200098420BD0854B984208D08B4B984205D0EE
:102630008A4B984202D08A4B984201D10B7A03868A
:1026400001238382704770B5002400220023058C8B
:102650004FF6FE7635400584028C8388048B4FF656
:102660008F752C40B51E2C400D882C43751E2A40BA
:102670000D892A434D882A436A4DA8420BD06F4DDD
:10268000A84208D0744DA84205D0744DA84202D08B
:10269000734DA84213D14FF6F7752A404D892A434E
:1026A0004FF6FB752A408D882A434FF6FF652B4075
:1026B0004FF6FF552B408D892B43CD892B438380CB
:1026C0000483CD888586028470BD70B50024002205
:1026D0000023058C4FF6EF7635400584028C838805
:1026E000048B48F6FF752C404FF6FF452C400D88B3
:1026F0004FF6FF7606EA05252C434FF6DF752A4094
:102700000D8906EA05152A434D8806EA05152A4370
:10271000444DA84202D0494DA8421DD14FF67F75C5
:102720002A404D894FF6FF7606EA05152A434FF6F3
:10273000BF752A408D8806EA05152A434FF6FF35F6
:102740002B404FF2FF752B408D8906EA85052B4300
:10275000CD8906EA85052B4383800483CD880587D0
:10276000028470BD70B5002400220023058C4FF652
:10277000FF6635400584028C8388848B4FF68F7505
:102780002C404FF6FC752C400D882C434FF6FF551E
:102790002A400D894FF6FF7606EA05252A434D8823
:1027A00006EA05252A431F4DA84202D0234DA84220
:1027B0001DD14FF2FF752A404D894FF6FF7606EA8C
:1027C00005252A434FF6FF352A408D8806EA052560
:1027D0002A434EF6FF752B404DF6FF752B408D8931
:1027E00006EA05152B43CD8906EA05152B438380A0
:1027F0008483CD888587028470BD70B50022002354
:102800000024058C4EF6FF7635400584038C8488C1
:10281000828B48F6FF752A404FF6FF452A400D8807
:1028200020E00000002C01400004004000080040AF
:10283000000C004000100040001400400034014033
:10284000004C01400050014000540140001800407D
:10285000001C0040002000400040014000440140B6
:10286000004801404FF6FF7606EA05252A434DF65B
:10287000FF752B400D8906EA05352B434D8806EA86
:1028800005352B43FA4DA84202D0FA4DA84208D193
:102890004BF6FF752C408D894FF6FF7606EA8515BD
:1028A0002C4384808283CD88A0F84050038470BD7F
:1028B000828B4FF2FF331A408283828B4FF6FF7375
:1028C00003EA01231A4382837047F0B50C4615468C
:1028D000002200210026078C4EF6FF7C07EA0C0739
:1028E0000784828B018C4FF6FF7707EA043640F6A7
:1028F000FF473A404FF6FF7707EA05273A434FF67E
:10290000FF7707EA03373A43D94FB8420ED0D94F81
:10291000B8420BD0B0F1804F08D0D74FB84205D0A5
:10292000D64FB84202D0D64FB84206D14DF6FF7707
:10293000394046F48057394305E047F6FF573940A0
:1029400044F48057394382830184F0BD828B4FF673
:10295000F3731A408283828B0A4382837047F0B5F7
:102960000C461546002200210026078C4FF6FF6C0E
:1029700007EA0C070784828B018C4FF6FF7707EA82
:1029800004264FF60C773A404FF6FF7707EA031715
:102990002F433A43B64FB8420ED0B64FB8420BD091
:1029A000B0F1804F08D0B44FB84205D0B34FB84211
:1029B00002D0B34FB84206D14FF6FF57394046F424
:1029C0008077394305E04FF2FF57394044F4807770
:1029D000394382830184F0BD028B4FF2FF331A40EA
:1029E0000283028B4FF6FF7303EA01231A4302832B
:1029F0007047F0B50C461546002200210026078CD2
:102A00004FF6EF7C07EA0C070784028B018C4FF628
:102A1000FF7707EA041640F6FF473A404FF6FF7784
:102A200007EA03373A434FF6FF7707EA05273A43A9
:102A30008F4FB8420ED08F4FB8420BD0B0F1804FBD
:102A400008D08D4FB84205D08C4FB84202D08C4F81
:102A5000B84206D14FF6DF77394046F010073943C8
:102A600005E04FF65F77394044F0100739430283A1
:102A70000184F0BD028B4FF6F3731A400283028B80
:102A80000A4302837047F0B50C4615460022002128
:102A9000068C4FF6FE773E400684028B018C4FF683
:102AA0000C7632407E1C06EA03162E433243704EEB
:102AB000B0420ED06F4EB0420BD0B0F1804F08D074
:102AC0006D4EB04205D06D4EB04202D06C4EB04259
:102AD00006D14FF6FD76314044F00106314305E062
:102AE0004FF6F576314044F001063143028301840C
:102AF000F0BD70B505460C465D4885420ED05D4878
:102B000085420BD0B5F1804F08D05B48854205D097
:102B10005A48854202D05A48854200D100E000BFA1
:102B2000208850B92389A28861882846FFF7ABFF27
:102B3000E1882846FFF79EFF25E0208804280AD177
:102B40002389A28861882846FFF753FFE188284639
:102B5000FFF742FF17E0208808280AD12389A288BE
:102B600061882846FFF7FBFEE1882846FFF7EEFE66
:102B700009E02389A28861882846FFF7A6FEE1883C
:102B80002846FFF795FE70BD2DE9F04105460C463D
:102B900000260127608808B9022600E00026A088E8
:102BA000012801D1022700E001272088A0B923894C
:102BB000A28861882846FFF766FFE1882846FFF76C
:102BC00059FF23893A4631462846FFF712FFE1882C
:102BD0002846FFF701FF13E02389A2886188284671
:102BE000FFF707FFE1882846FFF7F6FE23893A46FC
:102BF00031462846FFF747FFE1882846FFF73AFFAE
:102C0000BDE8F0810A884B881A438B881A43CB8829
:102C10001A430B891A434B891A438B891A43A0F82C
:102C2000442070474FF6FF71818000210180C180F0
:102C30004180017270470021018041808180C18004
:102C4000018141818181C1817047002101804180E2
:102C5000012181800021C180018170470021018014
:102C600041808180C1800181418181817047000064
:102C7000002C0140003401400004004000080040E6
:102C8000000C004021B1028842F00102028004E001
:102C900002884FF6FE731A400280704731B1B0F8D7
:102CA000442042F40042A0F8442005E0B0F844205B
:102CB000C2F30E02A0F8442070471AB183890B4377
:102CC000838102E083898B438381704781827047CF
:102CD00041EA0203A0F8483070471AB183890B43D8
:102CE000838102E083898B438381704701894FF69A
:102CF000F8721140018170470A46002101894FF6A0
:102D00008F73194011430181704730B504460D4659
:102D100029462046FFF7F0FF208940F00700208178
:102D200030BD2DE9F04104460D4616461F46602D84
:102D300006D13B46012231462046FFF75AFE05E008
:102D40003B46012231462046FFF79DFE294620469C
:102D5000FFF7D2FF208940F007002081BDE8F08115
:102D600030B50C4600210189C9B24FF6FF7505EA5E
:102D70000325154325432943018130BD2DE9F04149
:102D800005460E4617469846002443463A463146C5
:102D90002846FFF7E5FF2C894FF6F870044044F011
:102DA00007044FF68F70044044F070042C81BDE896
:102DB000F081F0B504460D4616461F463B463246A6
:102DC00029462046FFF7CCFF208940F4804020812F
:102DD000F0BD0185828270470A46002101884FF6C6
:102DE0008F731940114301807047F0B50C461546AA
:102DF0001E460021002200230189028B038C4FF61E
:102E0000F877394021434FF6FC473A4040F201172A
:102E10003A434FF6DD773B404FF6FF7707EA061758
:102E20002F433B43018102830384F0BD0A46002106
:102E3000018B4FF68F7319401143018370470A4687
:102E40000021018B48F6FF7319404FF6FF7303EA28
:102E500002231943018370470A460021818B4FF6F4
:102E60008F7319401143818370470A460021818B7B
:102E700048F6FF7319404FF6FF7303EA0223194324
:102E80008183704721B1028842F08002028004E011
:102E900002884FF67F731A400280704721B1828802
:102EA00042F00402828004E082884FF6FB731A40ED
:102EB0008280704721B1828842F00802828004E05B
:102EC00082884FF6F7731A408280704721B182885A
:102ED00042F00102828004E082884FF6FE731A40BD
:102EE000828070470A460021018B4FF6F773194024
:102EF0001143018370470A460021018B4FF2FF7393
:102F000019404FF6FF7303EA022319430183704708
:102F10000A460021818B4FF6F773194011438183D4
:102F200070470A460021818B4FF2FF7319404FF61C
:102F3000FF7303EA02231943818370470A46002185
:102F4000018B4FF6FB7319401143018370470A460A
:102F50000021018B4FF6FF3319404FF6FF7303EA50
:102F600002231943018370470A460021818B4FF6E3
:102F7000FB7319401143818370470A460021818BFE
:102F80004FF6FF3319404FF6FF7303EA022319434C
:102F9000818370470A460021018B4FF67F731940E9
:102FA0001143018370470A460021018BC1F30E01D2
:102FB0004FF6FF7303EA02231943018370470A4661
:102FC0000021818B4FF67F73194011438183704735
:102FD0000A460021818BC1F30E014FF6FF7303EA0D
:102FE00002231943818370470A460021018C4FF662
:102FF000FD7319401143018470470A460021018C7A
:103000004FF6F77319401143018470470A460021B7
:10301000018C4FF6DF7319404FF6FF7303EA02137A
:103020001943018470470A460021018C4FF67F73D3
:1030300019404FF6FF7303EA0213194301847047E6
:103040000A460021018C4FF6FF5319404FF6FF73DB
:1030500003EA02231943018470470A460021018CC8
:103060004FF2FF7319404FF6FF7303EA022319432F
:10307000018470470A460021018C4DF6FF73194008
:103080004FF6FF7303EA023319430184704730B5EA
:10309000002301248C40A3B2048C9C430484048C40
:1030A00002FA01F5ADB22C43048430BD30B50023E3
:1030B00004248C40A3B2048C9C430484048C02FA44
:1030C00001F5ADB22C43048430BD70B50346002039
:1030D00000241846183001258D40ACB21D8CA54344
:1030E0001D8409B1082909D100EB6100056825F0AC
:1030F000700505600568154305600EE00D1FC5F3FA
:103100004E052844056825F4E045056005684FF63E
:10311000FF7606EA02263543056070BD21B10288BC
:1031200042F00202028004E002884FF6FD731A406A
:103130000280704721B1028842F00402028004E05C
:1031400002884FF6FB731A400280704721B18288D3
:1031500042F08002828004E082884FF67F731A403A
:103160008280704702884FF6F7731A400280028807
:103170000A430280704782884FF68F731A4082801C
:1031800082880A438280704702894FF6F8731A409A
:10319000028102890A430281704702894FF67F73D8
:1031A0001A40028102890A43028170478184704774
:1031B0008185704781867047018770478187704796
:1031C000A0F84010704702884FF6FF431A40028073
:1031D00002880A43028070470146888E7047014684
:1031E000088F70470146888F70470146B1F840004C
:1031F00070470146888C70470146088D704702462B
:103200000020138A0B400BB1012000E00020704722
:10321000CA430282704730B50246002000230024D2
:10322000158A05EA0103958905EA010413B10CB179
:10323000012000E0002030BDCA4302827047000038
:1032400010B50446FB48844209D101218803FFF7E9
:103250009FF800214FF48040FFF79AF832E0F648DB
:10326000844209D101214804FFF79FF800214FF45F
:103270000030FFF79AF825E0F048844209D1012197
:103280008804FFF792F800214FF48020FFF78DF8B3
:1032900018E0EB48844209D10121C804FFF785F802
:1032A00000214FF40020FFF780F80BE0E54884424E
:1032B00008D101210805FFF778F800214FF48010AC
:1032C000FFF773F810BD2DE9F04786B005460E46AE
:1032D0000024A24600BFA1460027B08900B100BF6C
:1032E0002F462C8A4CF6FF700440F08804432C8251
:1032F000AC894EF6F3100440B088318908437189D7
:1033000008430443AC81AC8A4FF6FF400440B089C7
:103310000443AC8201A8FEF7B4FFC648874202D13D
:10332000DDF810A001E0DDF80CA0A88900F4004051
:1033300040B10AEBCA0000EB0A1031684900B0FB4B
:10334000F1F807E00AEBCA0000EB0A1031688900C7
:10335000B0FBF1F86420B8FBF0F00401200964210F
:1033600001FB1089A88900F4004040B1322000EB35
:10337000C900B0FBF1F000F00700044308E0322080
:1033800000EB09106421B0FBF1F000F00F000443E2
:103390002C8106B0BDE8F0874FF416510160002182
:1033A0008180C18001810C21418100218181704790
:1033B00010B502460020108A4FF2FF0318400B8818
:1033C0004C8823438C882343CC88234318431082A2
:1033D00010BD0021018041808180C180704721B1F2
:1033E000828942F40052828104E082894DF6FF73A3
:1033F0001A4082817047F0B503460024002600255C
:10340000002040F66A17B94200D100BF1846C1F348
:10341000421401F01F06012707FA06F5012C01D11D
:103420000C3004E0022C01D1103000E014301AB14D
:1034300007682F43076002E00768AF430760F0BDED
:103440001AB1838A0B43838202E0838A8B4383828F
:103450007047028A4FF6F0731A400282028A0A43CA
:103460000282704782894FF2FF731A4082818289FB
:103470000A438281704721B1828942F0020282812F
:1034800004E082894FF6FD731A4082817047028AF8
:103490004FF6DF731A400282028A0A4302827047A3
:1034A00021B1028A42F48042028204E0028A4BF691
:1034B000FF731A4002827047C1F30802828070478E
:1034C00001468888C0F308007047818941F00101F6
:1034D00081817047028BD2B20283028B42EA0122C1
:1034E00002837047028B02F47F420283028B0A43FD
:1034F0000283704721B1828A42F02002828204E076
:10350000828A4FF6DF731A408282704721B1828A25
:1035100042F01002828204E0828A4FF6EF731A4072
:103520008282704721B1828A42F00802828204E0DE
:10353000828A4FF6F7731A408282704721B18289DE
:1035400042F40042828103E08289C2F30E0282814A
:10355000704721B1828A42F40062828204E0828A4A
:103560004FF2FF731A4082827047828A4FF6FB73D4
:103570001A408282828A0A438282704721B1828AFB
:1035800042F00202828204E0828A4FF6FD731A4002
:103590008282704702460020B1F5007F00D100BF53
:1035A00013880B400BB1012000E00020704701F4AC
:1035B0000072B2F5007F00D100BFCA43028070479D
:1035C00070B50246002400230025002040F66A164C
:1035D000B14200D100BFC1F3421501F01F03012623
:1035E00006FA03F3012D02D19689334006E0022D3D
:1035F00002D1168A334001E0968A33400C1201262C
:1036000006FA04F41688344013B10CB1012000E02E
:10361000002070BD10B50022002340F66A14A142BC
:1036200000D100BF0A1201249440A3B2DC430480FD
:1036300010BD000000380140004400400048004038
:10364000004C004000500040704770477047704782
:103650007047754600F028F8AE46050069465346A7
:1036600020F00700854618B020B5FDF7FBFDBDE84A
:1036700020404FF000064FF000074FF000084FF0D9
:10368000000B21F00701AC46ACE8C009ACE8C0096A
:10369000ACE8C009ACE8C0098D4670470446AFF3FA
:1036A00000802046FCF78BFD004870478001002019
:1036B000D0360008000000207C0000006C010008EB
:1036C0004C3700087C0000206407000088010008D7
:1036D000000020212223242526272829343686B5D8
:1036E0005C2A566B691011B651090020E01328308E
:1036F00058000D0320802828A0FF019071254088E4
:103700002020100000A24A04000000000000000079
:10371000010203040607080970008A000101000085
:103720000001000001000000000000000000000097
:10373000000000000000000000000102030401027C
:0C37400003040607080902040608000044
:0400000508000131BD
:00000001FF
